:100000000C944D010C9475010C9475010C947501C0
:100010000C9475010C9475010C9475010C94750188
:100020000C9475010C9475010C9475010C94750178
:100030000C9475010C9475010C9475010C94750168
:100040000C946A050C9475010C94DA050C94B405B3
:100050000C9475010C9475010C9475010C94750148
:100060000C9475010C947501000000000000005F05
:1000700000000007000700147F147F14242A7F2A41
:10008000122313086462364955225000050300000C
:10009000001C2241000041221C0014083E081408E4
:1000A000083E0808005030000008080808080060F2
:1000B00060000020100804023E5149453E00427F86
:1000C000400042615149462141454B311814127F8D
:1000D0001027454545393C4A494930017109050316
:1000E0003649494936064949291E0036360000007E
:1000F0005636000008142241001414141414004150
:100100002214080201510906324979413E7E11113B
:10011000117E7F494949363E414141227F4141227A
:100120001C7F494949417F090909013E4149497AF2
:100130007F0808087F00417F41002040413F017F48
:10014000081422417F404040407F020C027F7F0420
:1001500008107F3E4141413E7F090909063E415159
:10016000215E7F09192946464949493101017F012C
:10017000013F4040403F1F2040201F3F4038403F4C
:100180006314081463070870080761514945430068
:100190007F41410002040810200041417F00040219
:1001A0000102044040404040000102040020545439
:1001B00054787F48444438384444442038444448C0
:1001C0007F3854545418087E0901020C5252523E92
:1001D0007F0804047800447D40002040443D007FB7
:1001E0001028440000417F40007C041804787C08FB
:1001F00004047838444444387C1414140808141453
:10020000187C7C080404084854545420043F44409B
:10021000203C4040207C1C2040201C3C4030403C86
:1002200044281028440C5050503C4464544C440022
:100230000836410000007F00000041360800100829
:100240000810080000000000000000080002010083
:100250000003040700000000000000000000000090
:10026000250028002B0000000000240027002A00A1
:10027000040404040404040402020202020203034C
:100280000303030301020408102040800102040854
:1002900010200102040810200C0611241FBECFEF0D
:1002A000D8E0DEBFCDBF11E0A0E0B1E0EAE5FDE1BE
:1002B00002C005900D92A434B107D9F722E0A4E45E
:1002C000B1E001C01D92A039B207E1F711E0CDE421
:1002D000D1E004C02197FE010E94A50ECC34D107C5
:1002E000C9F70E94B8060C94AB0E0C94000090E085
:1002F000FC01EC57FD4F249180599D4FFC018491E6
:10030000882399F090E0880F991FFC01EA59FD4F6E
:10031000A591B491FC01E45AFD4F859194918FB75A
:10032000F894EC91E22BEC938FBF089590E0FC01E0
:10033000E85BFD4F2491FC01EC57FD4F3491FC012B
:10034000E059FD4FE491EE23C9F0222339F0233028
:1003500001F1A8F4213019F1223029F1F0E0EE0F7B
:10036000FF1FE45AFD4FA591B4918FB7F894EC911B
:10037000611126C030953E233C938FBF08952730EE
:10038000A9F02830C9F0243049F7809180008F7D92
:1003900003C0809180008F7780938000DFCF84B589
:1003A0008F7784BDDBCF84B58F7DFBCF8091B0008C
:1003B0008F778093B000D2CF8091B0008F7DF9CF3E
:1003C0003E2BDACF8E50806480937C0080917A003F
:1003D000806480937A0080917A0086FDFCCF8091C2
:1003E00078009091790008953FB7F8948091550175
:1003F00090915601A0915701B091580126B5A89B44
:1004000005C02F3F19F00196A11DB11D3FBFBA2FA6
:10041000A92F982F8827BC01CD01620F711D811D66
:10042000911D42E0660F771F881F991F4A95D1F7EB
:1004300008958F929F92AF92BF92CF92DF92EF92E8
:10044000FF924B015C010E94F4016B017C010E9450
:10045000F4016C197D098E099F09683E734081057E
:100460009105A8F321E0821A9108A108B10888EE4D
:10047000C80E83E0D81EE11CF11C81149104A10474
:10048000B10429F7FF90EF90DF90CF90BF90AF902D
:100490009F908F900895AF92BF92CF92DF92EF928C
:1004A000FF920F931F93CF93DF936C017B018B011E
:1004B000040F151FEB015E01AE18BF08C017D1076E
:1004C00059F06991D601ED91FC910190F081E02DF8
:1004D000C6010995892B79F7C501DF91CF911F914D
:1004E0000F91FF90EF90DF90CF90BF90AF90089565
:1004F000FC01538D448D252F30E0842F90E0821B2A
:10050000930B541710F0CF96089501970895FC01AE
:10051000918D828D981761F0A28DAE0FBF2FB11D06
:100520005D968C91928D9F5F9F73928F90E008955E
:100530008FEF9FEF0895FC01918D828D981731F018
:10054000828DE80FF11D858D90E008958FEF9FEF6C
:100550000895FC01918D228D892F90E0805C9F4F42
:10056000821B91098F739927089589E591E00E9474
:10057000A90221E0892B09F420E0822F089580E070
:1005800090E0892B29F00E94B50281110C940000A3
:100590000895FC01A48DA80FB92FB11DA35ABF4F18
:1005A0002C91848D90E001968F739927848FA68972
:1005B000B7892C93A089B1898C91837080648C93C6
:1005C000938D848D981306C00288F389E02D808175
:1005D0008F7D80830895EF92FF920F931F93CF93A7
:1005E000DF93EC0181E0888F9B8D8C8D98131AC06E
:1005F000E889F989808185FF15C09FB7F894EE8955
:10060000FF896083E889F9898081837080648083B1
:100610009FBF81E090E0DF91CF911F910F91FF90FC
:10062000EF900895F62E0B8D10E00F5F1F4F0F73A4
:100630001127E02E8C8D8E110CC00FB607FCFACF5F
:10064000E889F989808185FFF5CFCE010E94C90232
:10065000F1CFEB8DEC0FFD2FF11DE35AFF4FF08230
:100660009FB7F8940B8FEA89FB8980818062CFCF96
:10067000CF93DF93EC01888D8823B9F0AA89BB89D9
:10068000E889F9898C9185FD03C0808186FD0DC0C4
:100690000FB607FCF7CF8C9185FFF2CF808185FFE5
:1006A000EDCFCE010E94C902E9CFDF91CF9108952D
:1006B000089590E080E00895EF92FF920F931F93CA
:1006C000CF93DF93EC01042F8E810E94960160E0AE
:1006D00088850E949601FC80ED8018E0602F661FDF
:1006E0006627661F8E2D0E949601000F61E08F2DF8
:1006F0000E94960160E08F2D0E949601115071F7C3
:1007000061E08885DF91CF911F910F91FF90EF906D
:100710000C949601CF93DF93C2E4D2E01C8690E064
:100720006B8529E3629F612D1124669570E06F5FF0
:100730007F4F0E94760E8D8740E860E0CE010E94D8
:100740005C034D85406460E0CE01DF91CF910C9455
:100750005C03FB0101900020E9F73197AF01461BD4
:10076000570BDC01ED91FC910280F381E02D09949F
:100770008F929F92AF92BF92EF92FF920F931F932F
:10078000CF93DF93CDB7DEB7A1970FB6F894DEBF56
:100790000FBECDBF7C01FA01CB0119A2223008F4B3
:1007A0002AE08E010F5D1F4F822E912CB12CA12CBF
:1007B000BF01A50194010E94090CF901CA016A3028
:1007C0000CF5605DD8016E938D01232B242B252B16
:1007D00079F790E080E0109721F0BD01C7010E94F9
:1007E000A903A1960FB6F894DEBF0FBECDBFDF916F
:1007F000CF911F910F91FF90EF90BF90AF909F907E
:100800008F900895695CDECF2F923F924F925F9256
:100810006F927F928F929F92AF92BF92CF92DF9210
:10082000EF92FF921F93CF93DF93EC016A017B015C
:10083000722EAB019601CB01B6010E94710E6EE1E2
:1008400071E0811126C046015701E894B7F82FEFF7
:100850003FEF4FE75FE7C501B4010E94710E8111C0
:100860000CC02FEF3FEF4FE75FE7C501B4010E94D7
:10087000A70C62E271E0181664F02FEF3FEF4FE72C
:100880005FE4C701B6010E94FF0D1816B4F466E2DA
:1008900071E0CE01DF91CF911F91FF90EF90DF903B
:1008A000CF90BF90AF909F908F907F906F905F9010
:1008B0004F903F902F900C94A9032FEF3FEF4FE7FD
:1008C0005FECC701B6010E94A70C87FDE0CF20E0D6
:1008D00030E0A901C701B6010E94A70C312C212CE0
:1008E00087FF0DC0E881F9810190F081E02D6DE274
:1008F000CE0109951C01F7FAF094F7F8F09410E096
:1009000060E070E080E09FE3711641F020E030E0AD
:1009100040E251E40E94AC0C1F5FF6CFA7019601A4
:100920000E943B0C2B013C010E941E0D4B015C01FF
:100930002AE0BC01A401CE010E94B8037C01E20CB4
:10094000F31C1123E1F1C501B4010E944D0D9B017F
:10095000AC01C301B2010E943A0C4B015C01E88179
:10096000F9810190F081E02D6EE2CE010995E80E4B
:10097000F91E115020F120E030E040E251E4C501C1
:10098000B4010E94040E2B013C010E941E0D4B017C
:10099000B12CA12C2AE0B501A401CE010E94B8031C
:1009A000E80EF91EC501B4010E944D0D9B01AC017A
:1009B000C301B2010E943A0C4B015C01DACFC701BE
:1009C000DF91CF911F91FF90EF90DF90CF90BF907C
:1009D000AF909F908F907F906F905F904F903F90DF
:1009E0002F900895CF92DF92EF92FF920F931F9373
:1009F000CF93DF9300D000D01F92CDB7DEB767FD55
:100A000066C07C01862F90E0603208F44FC080976A
:100A100025E0289FB001299F700D112468597F4F50
:100A200045E050E0CE0101960E94E10B8E010F5F80
:100A30001F4F680185E0C80ED11CF80141918F015C
:100A400061E0C7010E945C030C151D05B1F740E091
:100A500061E0C7010E945C03F701848590E006967F
:100A6000628570E00E94760E8487892B79F48585F3
:100A700090E00196638529E3629F612D11246695BC
:100A800070E06F5F7F4F0E94760E858781E090E077
:100A90000F900F900F900F900F90DF91CF911F91BB
:100AA0000F91FF90EF90DF90CF900895FC01379663
:100AB000EE0FFF1FEE0DFF1D0081118101151105C5
:100AC00009F0B7CF45E050E068E670E0ABCF90E0CA
:100AD00080E0DECF1F920F920FB60F9211242F935A
:100AE0003F938F939F93AF93BF938091F601909123
:100AF000F701A091F801B091F9013091540123E080
:100B0000230F2D3758F50196A11DB11D20935401D7
:100B10008093F6019093F701A093F801B093F90147
:100B20008091550190915601A0915701B0915801C3
:100B30000196A11DB11D8093550190935601A0937C
:100B40005701B0935801BF91AF919F918F913F9101
:100B50002F910F900FBE0F901F90189526E8230F2E
:100B60000296A11DB11DD2CF1F920F920FB60F9208
:100B700011242F933F934F935F936F937F938F93A2
:100B80009F93AF93BF93EF93FF9389E591E00E940A
:100B9000C902FF91EF91BF91AF919F918F917F918A
:100BA0006F915F914F913F912F910F900FBE0F90DA
:100BB0001F9018951F920F920FB60F9211242F932A
:100BC0008F939F93EF93FF93E0916901F0916A01F6
:100BD0008081E0916F01F091700182FD1BC09081D6
:100BE000809172018F5F8F7320917301821741F0A2
:100BF000E0917201F0E0E75AFE4F958F8093720109
:100C0000FF91EF919F918F912F910F900FBE0F90B9
:100C10001F9018958081F4CFE9E5F1E013821282EC
:100C200088EE93E0A0E0B0E084839583A683B78349
:100C300084E091E09183808385EC90E095878487C0
:100C400084EC90E09787868780EC90E0918B808B96
:100C500081EC90E0938B828B82EC90E0958B848B7F
:100C600086EC90E0978B868B118E128E138E148EED
:100C7000E2E4F2E01382128286E191E091838083C4
:100C800083E0848384E0858385E0868386E08783B0
:100C900087E08087E6E0F2E08EEF91E093A382A305
:100CA00082E092E091A380A38AEF91E095A384A3D0
:100CB00012AE12AA13AA14AA15AA80E090E0AFE718
:100CC000B3E486AB97ABA0AFB1AF84E690E0A0E011
:100CD000B0E086A797A7A0ABB1AB158E148E81E0CC
:100CE00090E0978F868F83AF80E090E0A0E7B1E43B
:100CF00084839583A683B78340E050E060E07FE380
:100D0000408751876287738740E050E060E87FE367
:100D10004487558766877787808B918BA28BB38BAF
:100D20008DEC9CECACE4BDE3848B958BA68BB78BF0
:100D300080E090E0A0E2B1E4808F918FA28FB38F2A
:100D40002FB7F8948091F6019091F701A091F801E6
:100D5000B091F9012FBF46A557A560A971A9841BC1
:100D6000950BA60BB70B86A397A3A0A7B1A70895D1
:100D7000CF93DF93CDB7DEB72E970FB6F894DEBFD3
:100D80000FBECDBF789484B5826084BD84B5816088
:100D900084BD85B5826085BD85B5816085BD809146
:100DA0006E00816080936E001092810080918100BE
:100DB00082608093810080918100816080938100B6
:100DC000809180008160809380008091B100846078
:100DD0008093B1008091B00081608093B0008091D9
:100DE0007A00846080937A0080917A008260809398
:100DF0007A0080917A00816080937A0080917A00F5
:100E0000806880937A001092C100E0916901F091AE
:100E10006A0182E08083E0916501F09166011082B1
:100E2000E0916701F09168018FEC8083109271016D
:100E3000E0916D01F0916E0186E08083E0916B019D
:100E4000F0916C01808180618083E0916B01F09171
:100E50006C01808188608083E0916B01F0916C016E
:100E6000808180688083E0916B01F0916C018081CA
:100E70008F7D808388E00E9477018CE00E9477015B
:100E80008DE00E94770184E580934C0280E380939B
:100E90004D0210924B0210924E0210924F02E0E56A
:100EA000F2E080E4DF011D928A95E9F78091460225
:100EB0000E947701809147020E9477018091480249
:100EC0000E947701809149020E94770180914A0235
:100ED0000E94770161E0809149020E94960161E0E1
:100EE00080914A020E94960160E0809149020E942E
:100EF000960164E670E080E090E00E94190261E0F3
:100F0000809149020E94960141E260E082E492E011
:100F10000E945C0343E160E082E492E00E945C0393
:100F200080914B0242EC813039F440EE60E082E483
:100F300092E00E945C0345E060E082E492E00E945F
:100F40005C0340E260E082E492E00E945C0349E0DE
:100F500060E082E492E00E945C0380E00E948A03E9
:100F60001A82198280914D02869586958695909178
:100F70004C02899FC0011124E981FA81E817F90721
:100F800068F440E061E082E492E00E945C03298121
:100F90003A812F5F3F4F3A832983E4CF80E00E945C
:100FA0008A0348E060E082E492E00E945C034CE047
:100FB00060E082E492E00E945C0364E670E080E01E
:100FC00090E00E94190240E860E082E492E00E9412
:100FD0005C0340E460E082E492E00E945C03412C08
:100FE000512C8AEF682E82EC782E40923802509273
:100FF000390260923A0270923B02C12CD12C9AEFD6
:10100000E92E92E4F92EC0923C02D0923D02E09289
:101010003E02F0923F02809140024091280250919E
:1010200029025A834983882309F48FC3DA018D90FA
:101030009D90AD90BC90A7019601C501B4010E949E
:10104000FF0D18163CF5E981FA81C082D182E28257
:10105000F3828090060290900702A0900802B09060
:101060000902C0903C02D0903D02E0903E02F09018
:101070003F02A7019601C501B4010E94FF0D181699
:10108000DCF4C0920602D0920702E0920802F092CD
:10109000090222C020E030E04AEF52ECC501B40161
:1010A0000E94A70C87FFD5CFA981BA814D925D928E
:1010B0006D927C921397CDCFC0903802D0903902B8
:1010C000E0903A02F0903B02A7019601C501B401FD
:1010D0000E94A70C87FDD5CF81E080934002222497
:1010E00023948EE00E94E2012CE330E0DC010E94B8
:1010F0008A0E2FEF33E040E050E00E94EA0BCA0175
:10110000B9016C5E7F4F8F4F9F4F0E944F0D6093D0
:10111000FA017093FB018093FC019093FD016091B3
:10112000FE017091FF0180910002909101022091D7
:101130004C0121110EC020E030E048EC51E4209336
:1011400048013093490140934A0150934B0120924A
:101150004C012FB7F894C090F601D090F701E090C1
:10116000F801F090F9012FBF009144011091450161
:101170002091460130914701C01AD10AE20AF30AD0
:1011800044E6C416D104E104F10408F460C00C592B
:101190001F4F2F4F3F4F0093440110934501209361
:1011A000460130934701C0904801D0904901E0903A
:1011B0004A01F0904B0120E030E048EC51E40E94FD
:1011C000040E20E030E04FE753E40E94AC0C20E036
:1011D00030E048EC52E40E94040E20E030E04AE7A0
:1011E00054E40E94AC0C20E030E040E251E40E9464
:1011F000AC0C2AE037ED43E65FE30E94AC0CA7019C
:1012000096010E943B0C4B015C0120E030E048EC71
:1012100051E4C701B6010E943A0C27E137EB41EDDA
:1012200058E30E94040E20E030E040EA50E40E94BF
:10123000040E9B01AC01C501B4010E943A0C6093FD
:1012400048017093490180934A0190934B0180912A
:10125000480190914901A0914A01B0914B018093BE
:10126000020290930302A0930402B09305028091BE
:101270004002882309F434C18FB7F8942091F60115
:101280003091F7014091F8015091F90129873A878F
:101290004B875C878FBF80912C0290912D02A0918B
:1012A0002E02B0912F0249855A856B857C85481B9B
:1012B000590B6A0B7B0B8091340290913502A091FF
:1012C0003602B0913702481759076A077B0708F4BE
:1012D00007C1E0912602F091270240805180628090
:1012E0007380E0912A02F0912B02A30192016081A8
:1012F0007181828193810E943A0C6B017C01209163
:101300003002309131024091320250913302C301D8
:10131000B2010E943A0C69837A838B839C8320916B
:101320001A0230911B0240911C0250911D02C7010C
:10133000B6010E94040E20910602309107024091EE
:101340000802509109020E943B0C4B015C01809203
:10135000060290920702A0920802B0920902309011
:10136000410231101CC020911602309117024091A9
:1013700018025091190269817A818B819C810E94A7
:10138000040E9B01AC01C501B4010E943A0C6093AC
:1013900006027093070280930802909309028091DD
:1013A000060290910702A0910802B09109028D8374
:1013B0009E83AF83B88700913C0210913D029091CB
:1013C0003E029E87A0913F02AD879801492F5A2F78
:1013D0006D817E818F8198850E94FF0D18160CF01B
:1013E0006FC1C801AE85BD85809306029093070248
:1013F000A0930802B0930902812C912C5401332050
:1014000071F020911602309117024091180250910C
:101410001902C701B6010E94040E4B015C01C09085
:101420000602D0900702E0900802F0900902209195
:101430001E0230911F0240912002509121026981C9
:101440007A818B819C810E94040E9B01AC01C701B3
:10145000B6010E943A0CA50194010E943B0C4B017D
:101460005C019B01AC01B8018E859D850E94A70C93
:1014700087FF41C198014E855D85B401C5010E9479
:101480003A0C9B01AC01C701B6010E943A0C609373
:1014900006027093070280930802909309024801A4
:1014A000AE84BD84E0912802F0912902C401D501E7
:1014B00080839183A283B3834092300250923102A1
:1014C000609232027092330229853A854B855C85A1
:1014D00020932C0230932D0240932E0250932F0222
:1014E0008FE00E94E20144E28D3B92400CF040E22A
:1014F00060E082E492E00E945C0381E00E948A0343
:101500006AE271E082E492E00E94A9034091FA014C
:101510005091FB016091FC017091FD0122E082E499
:1015200092E00E94040482E00E948A0360E371E07A
:1015300082E492E00E94A9034091FE015091FF01D4
:10154000609100027091010222E082E492E00E9428
:10155000040483E00E948A0367E371E082E492E07E
:101560000E94A9034091020250910302609104027B
:101570007091050222E082E492E00E94040420E0DF
:1015800030E040EF51E460910202709103028091DB
:101590000402909105020E94A70C682F661F66271F
:1015A000661F88E00E949601C0900202D09003025C
:1015B000E0900402F090050220E030E040EF51E4BA
:1015C000C701B6010E94FF0D87FD0CC041E04983B1
:1015D00020E030E048E252E4C701B6010E94A70CC7
:1015E00018160CF4198269818CE00E94960151E072
:1015F000598320E030E048E252E4609102027091A9
:10160000030280910402909105020E94FF0D1816BA
:101610000CF0198269818DE00E94960180E10E94A0
:10162000E2018D3B9240CCF14091FA015091FB01D7
:101630006091FC017091FD0122E089E591E00E943A
:1016400004046EE371E089E591E00E94A9034091F2
:10165000FE015091FF01609100027091010222E0B1
:1016600089E591E00E9404046EE371E089E591E070
:101670000E94A9034091020250910302609104026A
:101680007091050222E089E591E00E94040460E483
:1016900071E089E591E00E94A90364EF71E080E0C8
:1016A00090E00E941902E0E0F0E0EF2B09F419CD80
:1016B0000E94B502882309F414CD0E94000011CDC8
:1016C0008090380290903902A0903A02B0903B028C
:1016D000A50194016D817E818F8198850E94A70C60
:1016E00087FF8ACE8092060290920702A09208029B
:1016F000B092090281CE0091380210913902B09166
:101700003A02BD83E0913B02E98398014B2F5E2FA3
:10171000B401C5010E94A70C87FFC4CE9401A501A6
:10172000B8018D8199810E943A0CA70196010E940F
:101730003B0C60930602709307028093080290931B
:1017400009024801AD80B980ADCEA981BA818D90E2
:101750009D90AD90BC908092060290920702A0925C
:101760000802B0920902E0912602F09127028081DE
:101770009181A281B3818093300290933102A09332
:101780003202B093330220E030E04AEF52E4C50168
:10179000B4010E94FF0D18160CF473CC20E030E069
:1017A0004AEF52ECC501B4010E94A70C87FF94CC0C
:1017B000409206025092070260920802709209025B
:1017C0008BCCFB01DC0102C005900D9241505040D2
:1017D000D8F70895052E97FB1EF400940E94010C83
:1017E00057FD07D00E94090C07FC03D04EF40C945F
:1017F000010C50954095309521953F4F4F4F5F4FCD
:10180000089590958095709561957F4F8F4F9F4F6C
:101810000895A1E21A2EAA1BBB1BFD010DC0AA1F31
:10182000BB1FEE1FFF1FA217B307E407F50720F049
:10183000A21BB30BE40BF50B661F771F881F991FC4
:101840001A9469F760957095809590959B01AC010D
:10185000BD01CF010895A29FB001B39FC001A39F16
:10186000700D811D1124911DB29F700D811D1124D9
:10187000911D08955058BB27AA270E94520C0C9422
:10188000C50D0E94B70D38F00E94BE0D20F039F44E
:101890009F3F19F426F40C94B40D0EF4E095E7FB89
:1018A0000C94AE0DE92F0E94D60D58F3BA176207BB
:1018B00073078407950720F079F4A6F50C94F80DCA
:1018C0000EF4E0950B2EBA2FA02D0B01B90190015B
:1018D0000C01CA01A0011124FF27591B99F0593F9F
:1018E00050F4503E68F11A16F040A22F232F342FE7
:1018F0004427585FF3CF469537952795A795F04035
:101900005395C9F77EF41F16BA0B620B730B840B49
:10191000BAF09150A1F0FF0FBB1F661F771F881F01
:10192000C2F70EC0BA0F621F731F841F48F4879559
:1019300077956795B795F7959E3F08F0B0CF93954B
:10194000880F08F09927EE0F9795879508950E94C4
:101950008A0D08F481E008950E94C00C0C94C50D16
:101960000E94BE0D58F00E94B70D40F029F45F3F71
:1019700029F00C94AE0D51110C94F90D0C94B40D8A
:101980000E94D60D68F39923B1F3552391F3951B6B
:10199000550BBB27AA2762177307840738F09F5F90
:1019A0005F4F220F331F441FAA1FA9F335D00E2EFD
:1019B0003AF0E0E832D091505040E695001CCAF76A
:1019C0002BD0FE2F29D0660F771F881FBB1F26172D
:1019D00037074807AB07B0E809F0BB0B802DBF0104
:1019E000FF2793585F4F3AF09E3F510578F00C94D3
:1019F000AE0D0C94F90D5F3FE4F3983ED4F3869559
:101A000077956795B795F7959F5FC9F7880F911DF3
:101A10009695879597F90895E1E0660F771F881FDF
:101A2000BB1F621773078407BA0720F0621B730B92
:101A3000840BBA0BEE1F88F7E09508950E94DE0D27
:101A400088F09F5798F0B92F9927B751B0F0E1F07F
:101A5000660F771F881F991F1AF0BA95C9F714C02F
:101A6000B13091F00E94F80DB1E008950C94F80D9A
:101A7000672F782F8827B85F39F0B93FCCF3869568
:101A800077956795B395D9F73EF4909580957095C5
:101A900061957F4F8F4F9F4F0895E89409C097FB42
:101AA0003EF490958095709561957F4F8F4F9F4F35
:101AB0009923A9F0F92F96E9BB279395F695879579
:101AC00077956795B795F111F8CFFAF4BB0F11F43C
:101AD00060FF1BC06F5F7F4F8F4F9F4F16C08823E3
:101AE00011F096E911C0772321F09EE8872F762F19
:101AF00005C0662371F096E8862F70E060E02AF05A
:101B00009A95660F771F881FDAF7880F9695879545
:101B100097F90895990F0008550FAA0BE0E8FEEF1A
:101B200016161706E807F907C0F012161306E407A1
:101B3000F50798F0621B730B840B950B39F40A269A
:101B400061F0232B242B252B21F408950A2609F478
:101B5000A140A6958FEF811D811D089597F99F677C
:101B600080E870E060E008959FEF80EC0895002425
:101B70000A941616170618060906089500240A94F2
:101B800012161306140605060895092E0394000C78
:101B900011F4882352F0BB0F40F4BF2B11F460FF07
:101BA00004C06F5F7F4F8F4F9F4F089557FD905830
:101BB000440F551F59F05F3F71F04795880F97FB11
:101BC000991F61F09F3F79F08795089512161306CB
:101BD0001406551FF2CF4695F1DF08C016161706FA
:101BE0001806991FF1CF869571056105089408952F
:101BF000E894BB2766277727CB0197F908950E94C1
:101C00008A0D08F48FEF08950E94170E0C94C50DED
:101C10000E94B70D38F00E94BE0D20F0952311F000
:101C20000C94AE0D0C94B40D11240C94F90D0E947B
:101C3000D60D70F3959FC1F3950F50E0551F629F2D
:101C4000F001729FBB27F00DB11D639FAA27F00D15
:101C5000B11DAA1F649F6627B00DA11D661F829F3C
:101C60002227B00DA11D621F739FB00DA11D621F21
:101C7000839FA00D611D221F749F3327A00D611D3E
:101C8000231F849F600D211D822F762F6A2F112420
:101C90009F5750409AF0F1F088234AF0EE0FFF1F53
:101CA000BB1F661F771F881F91505040A9F79E3FAA
:101CB000510580F00C94AE0D0C94F90D5F3FE4F3E8
:101CC000983ED4F3869577956795B795F795E79500
:101CD0009F5FC1F7FE2B880F911D9695879597F909
:101CE00008950E948A0D880B990B089597FB072E83
:101CF00016F4009407D077FD09D00E94910E07FCDE
:101D000005D03EF4909581959F4F0895709561950B
:101D10007F4F08950E942B0CB7FF0895821B930BF1
:101D20000895AA1BBB1B51E107C0AA1FBB1FA61722
:101D3000B70710F0A61BB70B881F991F5A95A9F774
:101D400080959095BC01CD010895EE0FFF1F059081
:0A1D5000F491E02D0994F894FFCF00
:101D5A0000000000EB024B0278023803A902870256
:101D6A009B0200000000F2044B02590358036E6103
:101D7A006E00696E66006F7666004F70743A2000D6
:101D8A004374726C3A200054656D703A20002C003E
:041D9A000D0A00002E
:00000001FF
